:020000040800F2
:10000000A0080020610100085D2C0008FF290008FD
:1000100000000000000000000000000000000000E0
:10002000000000000000000000000000752C000827
:100030000000000000000000612C0008772C000880
:1000400073010008730100087301000873010008C0
:1000500073010008730100087301000873010008B0
:1000600073010008E104000873010008D1040008CE
:100070007301000873010008730100087301000890
:100080007301000873010008730100087301000880
:100090007301000873010008730100087301000870
:1000A00073010008652C0008730100087301000843
:1000B00051340008730100087301000800F002F8D1
:1000C00000F03EF80CA030C8083824182D18A246BD
:1000D000671EAB4654465D46AC4201D100F030F895
:1000E0007E460F3E0FCCB6460126334200D0FB1AA7
:1000F000A246AB46334318476835000088350000F8
:10010000103A02D378C878C1FAD8520701D330C860
:1001100030C101D504680C60704700000023002442
:1001200000250026103A01D378C1FBD8520700D32E
:1001300030C100D50B6070471FB51FBD10B510BD95
:1001400000F093F91146FFF7F7FF03F0C5F900F04F
:10015000ABF903B4FFF7F2FF03BC00F0B1F9000004
:100160000748804707480047FEE7FEE7FEE7FEE74F
:10017000FEE7FEE704480549054A064B70470000C4
:10018000F92C0008BD000008A0020020A0080020F3
:10019000A0040020A00400204343514330B55C1864
:1001A000010C130C0D4692B25D4380B251432C19E1
:1001B000054655430A0C09044D1962415843010C88
:1001C00000044019514130BDFEB5054610460C46AD
:1001D000184373D0AE468C460020AD1A01469C41B0
:1001E00067D36646002701243D46B61A9D4102D3D7
:1001F00013463A462124654676462F04360C3E4384
:100200002D0CB61A9D4104D3150C1B042B4312046C
:100210001034654676462F06360A3E432D0AB61A36
:100220009D4104D3150E1B022B4312020834654670
:1002300076462F0736093E432D09B61A9D4104D351
:10024000150F1B012B431201241D65467646AF078F
:10025000B6083E43AD08B61A9D4104D3950F9B00E6
:100260002B439200A41C65467646EF0776083E4372
:100270006D08B61A9D411AD392185B41641C16E0B2
:100280000018764665464941B71A9D410191009094
:1002900009D36046B11A98418E4684460098019968
:1002A0000025401C6941DD0752082A435B08641E93
:1002B000E6D57246634603B0F0BDFFE70020014675
:1002C000C046C0462A462346F5E701E004C0091FA0
:1002D0000429FBD28B0701D50280801CC90700D0FE
:1002E0000270704700290BD0C30702D00270401C77
:1002F000491E022904D3830702D50280801C891E6F
:10030000E3E70022EEE70022DFE7002203098B4249
:100310002CD3030A8B4211D300239C464EE00346A4
:100320000B433CD4002243088B4231D303098B4258
:100330001CD3030A8B4201D394463FE0C3098B428E
:1003400001D3CB01C01A524183098B4201D38B01E7
:10035000C01A524143098B4201D34B01C01A52418A
:1003600003098B4201D30B01C01A5241C3088B42CF
:1003700001D3CB00C01A524183088B4201D38B00BA
:10038000C01A524143088B4201D34B00C01A52415C
:10039000411A00D201465241104670475DE0CA0F33
:1003A00000D04942031000D34042534000229C46F3
:1003B00003098B422DD3030A8B4212D3FC228901FD
:1003C00012BA030A8B420CD3890192118B4208D3D3
:1003D000890192118B4204D389013AD0921100E035
:1003E0008909C3098B4201D3CB01C01A5241830949
:1003F0008B4201D38B01C01A524143098B4201D376
:100400004B01C01A524103098B4201D30B01C01AA0
:100410005241C3088B4201D3CB00C01A524183081A
:100420008B4201D38B00C01A5241D9D243088B4270
:1004300001D34B00C01A5241411A00D20146634613
:1004400052415B10104601D34042002B00D5494277
:10045000704763465B1000D3404201B50020C046A0
:10046000C04602BD704770477047754600F024F8DB
:10047000AE46050069465346C008C000854618B020
:1004800020B5FFF777FE60BC00274908B646002676
:10049000C0C5C0C5C0C5C0C5C0C5C0C5C0C5C0C534
:1004A000403D49008D46704710B50446C046C046E1
:1004B0002046FFF74EFE10BD004870474002002066
:1004C00001491820ABBEFEE726000200704700007D
:1004D00010B5024800F0FAF810BD0000E401002059
:1004E00010B5024800F0F2F810BD0000F80000203E
:1004F00070B50446206C800880000949401860648B
:100500002178084608381421FFF7FFFE0546044805
:100510008030A064E906C90E01208840E06470BD07
:100520000008024002799106890E4A1E9200064B8D
:10053000D2180265044A403242654A1E93079B0F57
:1005400001229A40826570470009024070B5856CAF
:10055000C46C6C60046D002C02D0456D846D6C60C1
:100560000C4C64681C26056C35400126AE403443B3
:10057000084D6C60046863608468102C04D10468C2
:10058000A2600468E16003E00468A1600468E260BE
:1005900070BD00000000024072B600BFFEE7000020
:1005A0000146002901D1012070472520405C022826
:1005B00008D00420C86300BF00222420425400BF9A
:1005C0000120F1E7086800680E2290430A68106075
:1005D000486C0068FF22013290434A6C1060086842
:1005E0000068400840000A681060124840681C23F8
:1005F0000A6C1A400123934018430E4A50608A6CDB
:10060000C86C5060086D002809D0086D0068FF2292
:10061000013290430A6D10604A6D886D506001226E
:100620002520425400BF00222420425400BF002055
:10063000BAE700000000024070B5044600252520FE
:10064000005D022803D00420E06301253AE0206821
:1006500000680E218843216808602068006840080F
:10066000400021680860606C0068FF210131884308
:10067000616C0860144840681C22216C1140012202
:100680008A40104310494860A16CE06C4860206DBE
:10069000002809D0206D0068FF2101318843216DB9
:1006A0000860616DA06D486001212520015500BFE3
:1006B00000212420015500BFA06B002802D0204655
:1006C000A16B8847284670BD0000024070B5044603
:1006D00045480568206806681C20216C01400420FC
:1006E00088402840002820D00420304000281CD01A
:1006F0002068006820210840002805D12068006893
:100700000421884321680860374840681C22216C16
:10071000114004228A40104333494860206B00286E
:1007200060D02046216B88475CE01C20216C014092
:10073000022088402840002828D00220304000288D
:1007400024D02068006820210840002808D12068B3
:1007500000680A218843216808600121252001558D
:10076000214841681C22206C104002228240114323
:100770001D48416000BF00212420015500BFE06AF0
:1007800000282FD02046E16A88472BE01C20216CEE
:100790000140082088402840002823D0082030400D
:1007A00000281FD0206800680E2188432168086057
:1007B0000D4841681C22206C1040012282401143E8
:1007C000094841600120E06301212520015500BF57
:1007D00000212420015500BF606B002802D0204674
:1007E000616B884770BD00000000024010B50446F0
:1007F000002C01D1012010BD2A4A2168881A142139
:10080000FFF783FD80002064022125200155206828
:1008100000682549084021680860E168A06808432D
:100820002169084361690843A1690843E1690843F4
:10083000216A084321680968084321680860204646
:10084000FFF756FE01218903A068884201D10020EC
:10085000606020798006800E616C0860A16CE06C9D
:100860004860606800280CD06068042809D82046D9
:10087000FFF758FE0020216D0860616DA06D486093
:1008800003E0002020656065A0650020E063012191
:100890002520015500BF00212420015500BF002064
:1008A000A9E70000080002400F80FFFFF8B50446EA
:1008B0000D4616461F460020009000BF2420005D14
:1008C000012801D10220F8BD01212420015500BFDB
:1008D0002520005D012844D102212520015500205A
:1008E000E0632068006840084000216808603B46DB
:1008F000324629462046FFF729FE206B002806D005
:10090000206800680E210843216808600BE0206819
:1009100000680421884321680860206800680A2173
:10092000084321680860606C0068012109040840E0
:10093000002805D0606C006809120843616C0860EB
:10094000206D002806D0206D0068FF21013108438A
:10095000216D086020680068012108432168086053
:1009600008E08020E06300BF00212420015500BF83
:10097000012000900098A6E770B503460022D5E05C
:10098000012696400C683440002C71D04D68012D32
:1009900008D04D68022D05D04D68112D02D04D684C
:1009A000122D18D1986856000325B5400646AE436F
:1009B00030465600CD68B5402843986058680125F8
:1009C00095400646AE43304610264D6835402D0909
:1009D000954028435860D86856000325B540064620
:1009E000AE43304656008D68B5402843D8604D6808
:1009F000022D02D04D68122D15D1D508AE001D462E
:100A00002035A8595507EE0E0F25B5400646AE43D2
:100A100030465607F60E0D69B5402843D508AD009F
:100A20001E4620367051186856000325B54006460C
:100A3000AE4330460D79AD07AD0F5600B5402843A3
:100A40001860012636074D683540B5426DD13A4DE4
:100A50009608B600A8599507EE0E0F25B540064634
:100A6000AE43304605252D07AB4202D1002510E0EC
:100A70005BE0324DAB4201D101250AE0304DAB4283
:100A800001D1022505E02F4DAB4201D1032500E045
:100A900005259607F60EB5402843274D9608B60063
:100AA000A851254D203528680546A543284601262E
:100AB00036044D683540B54202D1054625432846E7
:100AC0001D4D2035286068680546A5432846012647
:100AD00076044D683540B54202D105462543284687
:100AE000154D20356860144D603D28680546A543C6
:100AF0002846012636054D683540B54202D10546E7
:100B0000254328460C4D603D286068680546A5438E
:100B10002846012676054D683540B54202D1054686
:100B200025432846044D603D6860521C0D68D54041
:100B3000002D00D024E770BD601802400004005072
:100B400000080050000C0050014800687047000089
:100B50000C00002038B504460025012149026068D8
:100B6000884202D06068002840D1E06A002809D09D
:100B7000E06AFFF715FD002804D0A06B08210843A8
:100B8000A0630125642301220221204601F0A4FF75
:100B9000002806D0A06B01210843A0633520015531
:100BA0000125642300228021204601F095FF0028C2
:100BB00006D0A06B01210843A06335200155012513
:100BC0002068C0690121890288432168C86100BF8B
:100BD0000020009020688068009000BF00BF20685F
:100BE000406802218843216848603EE003210902F1
:100BF0006068884204D0FF2101316068884234D1A6
:100C0000206B002809D0206BFFF7CAFC002804D015
:100C1000A06B08210843A06301252068C069012159
:100C2000890288432168C86100BF002000902068C5
:100C3000C068009020688068009000BF00BF2068F6
:100C400040684008400021684860FF210131606829
:100C5000884208D1A06B40210843A06301213520C0
:100C60000155012501E02068C068012135200155AA
:100C7000284638BD704770B504462068466820682D
:100C8000856840202840800900280FD1E807C00F60
:100C9000012148404840002808D0402030408009C9
:100CA000002803D0204601F0DFFE70BD022028405E
:100CB0004008002808D080203040C009002803D018
:100CC000204601F0EDFEF0E72020304040090028EA
:100CD00023D0402028408009002809D0206840689F
:100CE0006021884321684860A06B02210843A0630B
:100CF00008202840C008002809D020684068A021AA
:100D0000884321684860A06B04210843A063012147
:100D1000352001552046FFF7ADFF00BFC5E70000B5
:100D2000FEB50446002C01D10120FEBD3520005D3A
:100D3000002805D1002134200155204600F092F80A
:100D40000221352001552068C069454908402168C5
:100D5000C8610220216808626069022848D0E06802
:100D6000002801D1102500E02025A068202800D807
:100D70006D000120C00200F061FA019001214902DA
:100D8000206988421AD1E06800280BD0A900019898
:100D9000FFF7BBFA0A21484300906169FFF7B5FAF3
:100DA000461D16E0E9000198FFF7AFFA0A21484313
:100DB00000906169FFF7A9FA461D0AE029460198EB
:100DC000FFF7A3FA0A21484300906169FFF79DFAF3
:100DD000461D0A213046FFF798FA0646F007C00F75
:100DE00002900298301A470802980002029002E02E
:100DF000022700200290022F01D3FF2F05D9A06BFC
:100E000010210843A06301208FE72069029908435D
:100E10003843216808620121C90260680843A1685B
:100E20000843E1680843A16908432168C9690C4A7D
:100E3000114008432168C861A068302802D0A0682A
:100E4000B02806D12068C069012109030843216840
:100E5000C8610020A063012135200155002064E70E
:100E600040F0FFFF10B594B0044614210FA8FFF71F
:100E70004AFA342102A8FFF746FA3F49206888421F
:100E800078D1C01402900020079002A800F050FC16
:100E9000002801D0FFF780FB00BF3848006801211F
:100EA000090308433549086008460068891408406A
:100EB000019000BF00BF00BF30484038406B0121A7
:100EC00008432E49403948630846406BC007C00FAD
:100ED000019000BF00BF02200F90109000201190E1
:100EE00003201290002013900FA905200007FFF7A0
:100EF00043FD10200F9002201090002011901290BE
:100F000013900FA905200007FFF736FD80200F90F2
:100F100002201090119003201290002013900FA92E
:100F200005200007FFF728FD154816490860102026
:100F30004860002113488160C1608021016149003F
:100F40004161890081612021C16109020162FFF7CD
:100F50004DFC002801D0FFF71FFB00BF09482063AC
:100F6000846200BF00221146192000F031F91920D7
:100F700000F01CF914B010BD0030014040100240D8
:100F800008000240F8000020F8B504460E46154659
:100F9000002E01D0002D01D10120F8BD00BF34206A
:100FA000005D012801D10220F7E70121342001551D
:100FB00000BF3520005D012806D000BF002134208D
:100FC000015500BF0220E8E704213520015500202B
:100FD000A06366622068C06947077F0F032F01D0B6
:100FE000052F06D16804000C20856804000C60857C
:100FF00001E0258565852948216B08632848216B18
:10100000C8622848216B48632068C069032109022F
:10101000084088420AD100BF002000902068C068C4
:10102000009020688068009000BF00BF238D20687A
:1010300001460C31626A206B0090FFF737FC0028F4
:101040000DD0A06B08210843A06301213520015574
:1010500000BF00213420015500BF01209DE720681A
:10106000C069012189020840002804D12068C069B4
:1010700008432168C86120684068C007C00F002885
:1010800005D120684068012108432168486000BFFD
:1010900000213420015500BF00207EE75B2A0008B4
:1010A000312A0008032A00080221014A1160704712
:1010B000000000200121014A11607047000000205B
:1010C0007047000003480068034909784018014947
:1010D000086070470C0000201400002010B50024A8
:1010E00008480068FF2101310843064908600320D1
:1010F00000F00AF8002801D0012401E000F034F8E3
:10110000204610BD00200240F8B5044600251348D3
:10111000007800281ED0114801787D20C000FFF71C
:10112000F4F8074639460E480068FFF7EEF8064621
:1011300001F0D0F800280BD1042C07D20022214660
:10114000401E00F045F80748046004E0012502E075
:10115000012500E001252846F8BD0000140000200C
:10116000180000201000002008B500BF0E480068DD
:10117000012108430C49086008460068C007C00FF9
:10118000009000BF00BF00BF07484038C06B890512
:10119000084305494039C8630846C06B0904084044
:1011A000009000BF00BF08BD40100240014600296A
:1011B00009DB00BF00BFCB06DB0E01229A40034BC8
:1011C0001A6000BF00BF00BF7047000000E100E0F0
:1011D00070B504460D4616462946204602F040F9F1
:1011E00070BD000070B50446114800680321490233
:1011F000884320430E4908604815844216D10D49A2
:1012000009680622514308460B49FFF77EF8451C42
:1012100005E0002D01D06D1E01E0032070BD0448E3
:1012200040690121890208408842F2D00020F5E798
:10123000007000401800002040420F00F8B507463B
:10124000002000900120400487422BD1FC48C46953
:10125000032109020C40C06902210840022805D17F
:10126000C001844202D1C00100905DE2F448006AEE
:1012700002210840022806D10002844203D17D20C9
:101280000002009050E2EE48403800680121490415
:1012900008408842E9D1032000028442E5D1E948B0
:1012A000009041E2E6484038C0688007800F02287D
:1012B00001D1E54D09E0E2484038C0688007800F61
:1012C000032801D1E14D00E00025DD484038C06829
:1012D000702210400009411C2846FFF716F8054609
:1012E00001208002391A874274D00FDC102F72D08F
:1012F00004DC012F20D0022F6ED144E0202F6CD0CF
:10130000F81FFF38FA380028F6D142E1D04A881A8F
:10131000914263D007DCCF48081A6FD00721C90279
:10132000401AE9D1A3E00321C904401A67D0012182
:101330004905401AE0D1CBE1C14840698407A40FB8
:10134000002C03D100F05EFC00901BE0012C03D1C7
:1013500000F06CFC009015E0B94840380068BD49C9
:101360000840884204D1022C02D1B748009009E01D
:10137000B348C06902210840022803D1032C01D1DF
:1013800080030090CFE1AE4844690C210C40002C52
:1013900003D100F037FC00901BE0042C03D100F0D7
:1013A00045FC009015E0A64840380068A94908406F
:1013B000884204D1082C02D1A348009009E0A0483B
:1013C000C06902210840022803D10C2C01D18003FE
:1013D0000090A8E10FE11EE0A4E17AE0984844699A
:1013E00040210C4096484038006809010840884276
:1013F00006D1002C04D1984800900BE089E03CE134
:101400008F48C06902210840022803D1402C01D135
:101410008003009087E18A484469032189020C40D7
:10142000002C03D100F0EEFB00901FE089488442BD
:1014300003D100F0FBFB009018E0814840380068C1
:1014400084490840884205D14000844202D17E4848
:1014500000900BE07A48C06902210840022805D1BB
:1014600003208002844201D1880300905BE174482C
:101470004069840FA407002C03D100F0D7FB009033
:1014800026E00120C007844202D16F4800901FE08F
:101490000120800784421BD169484038C068A113ED
:1014A0000840002814D066484038C0687F210902EF
:1014B0000840060A624A403AD2681F235B041A4079
:1014C000520C511C2A4672431046FEF71EFF009034
:1014D00029E15B484469032109030C40002C03D136
:1014E00000F090FB009013E001200003844203D140
:1014F00000F09CFB00900BE05148403800685549D3
:101500000840884204D1C000844201D14E48009076
:1015100009E14B484469032189030C400120800301
:1015200084421CD146484038C068A10008400028C9
:101530002ED043484038C0687F2109020840060A7F
:101540003F4A403AD2681F235B041A40520C511C98
:101550002A4672431046FEF7D8FE009018E0002C91
:1015600003D100F063FB009012E03548403800687A
:1015700038490840884205D14001844202D13248AE
:10158000009005E003208003844201D1334800909D
:10159000C9E02B484469032189040C40002C03D185
:1015A00000F030FB009025E02548006A0221084049
:1015B000022806D14004844203D17D20000200901D
:1015C00018E01F484038006822490840884205D189
:1015D0004002844202D11C4800900BE01848C069C8
:1015E00002210840022805D103208004844201D151
:1015F0008803009097E012484469032109050C40D4
:10160000002C03D100F0FEFA009035E00C48006A8F
:1016100002210840022806D1C004844203D17D2063
:101620000002009028E00648403800680949084058
:10163000884215D1C002844212D1034800901BE0B9
:101640004010024090D003000024F40000127A0001
:1016500000FC0700000400001280000080BB0000B6
:101660003248C06902210840022805D10320000544
:10167000844201D18803009055E02C48446901213F
:1016800089050C40084684421CD128484038C0686F
:101690008900084000281AD024484038C0687F21BB
:1016A00009020840060A214A403AD26807235B062D
:1016B0001A40520E511C2A4672431046FEF725FE70
:1016C000009004E0002C02D100F09CFA00902AE087
:1016D00016484469012109060C40084684421BD182
:1016E00012484038C068084000281AD00F484038D7
:1016F000C0687F2109020840060A0C4A403AD268B5
:1017000007235B061A40520E511C2A4672431046AC
:10171000FEF7FBFD009004E0002C02D100F072FA0D
:10172000009000E000BF00BF0098F8BD40100240EC
:10173000FEB50446002700200290012149042068DC
:10174000084088427BD100200190B348C06BC90299
:10175000084000280ED100BFAF48C06B0843AE4917
:10176000C8630846C06B09040840009000BF00BF72
:1017700001200190A9480068FF2101310843A749D1
:101780000860FFF7E1F9064606E0FFF7DDF9801B88
:10179000022801D9032706E0A0480068FF21013193
:1017A00008400028F1D000BF002F4BD19A484030AC
:1017B000C569032109020D40002D1AD0206BA842F3
:1017C00017D095484030C06988430546924840305C
:1017D000C0690121090408438F494031C8610846A6
:1017E000C0690121090488438B494031C86108461A
:1017F000C561E807C00F002813D0FFF7A5F906461A
:1018000007E0FFF7A1F9801B8549884201D903272A
:1018100006E081484030C069022108400028F0D02D
:1018200000BF002F0CD17C484030C0690321090261
:101830008843216B084378494031C86103E00DE0DB
:10184000029700E002970198012806D17248C06B08
:101850000121090788437049C86300BF2078C00789
:10186000C00F002809D06C484030406980088000D3
:101870006168084368494031486102212068084096
:10188000022809D16448403040690C218843A1688E
:101890000843614940314861102120680840102800
:1018A0000AD15D4840304069032189028843E168DC
:1018B00008435949403148610121490220680840E4
:1018C00088420AD154484030406903218904884342
:1018D000A1690843504940314861012189022068CB
:1018E000084088420AD14C4840304069032109052C
:1018F0008843E16908434849403148612021206814
:10190000084020280AD14448403040690321090397
:1019100088432169084340494031486101218903D6
:1019200020680840884213D13B484030406980001D
:101930008008216A08433849403148610906206A15
:10194000884205D13448C068891308433249C860C9
:101950000121C90420680840884209D12E4840303E
:10196000406940218843616A08432B4940314861FE
:101970000121490520680840884214D1264840309A
:10198000406949008843A16A0843234940314861BE
:1019900001218905A06A884205D11F48C0688900D5
:1019A00008431D49C8600121890520680840884214
:1019B00013D119484030406989008843E16A0843DF
:1019C00015494031486101210906E06A884204D185
:1019D0001148C06808431049C8600121C902206845
:1019E0000840884215D10C484030406903218903E2
:1019F00088436169084308494031486101218903EE
:101A00006069884205D10448C068890008430249DA
:101A1000C8600298FEBD0000001002400070004047
:101A20008813000070B504460D46002C01D101203A
:101A300070BD6B4800684007400FA84218D2684844
:101A40000068C008C000284365490860FFF77CF8BB
:101A5000064607E0FFF778F8801B6249884201D903
:101A60000320E5E75E4800684007400FA842F1D137
:101A7000022120680840022815D10421206808406E
:101A8000042807D158488068072109038843401873
:101A900055498860544880680F2109028843A1682D
:101AA0000843514988602078C007C00F002854D0EF
:101AB0006068012808D14C480068012149040840A9
:101AC00000282ED10120B3E76068022808D14648DB
:101AD0000068012149060840002822D10120A7E71B
:101AE0006068002808D14048006801218902084048
:101AF000002816D101209BE76068032808D13A48E6
:101B00004030006A0221084000280AD101208FE7F6
:101B100035484030C06902210840002801D1012029
:101B200086E731488068C008C000616808432E49D4
:101B30008860FFF709F8064607E0FFF705F8801B05
:101B40002849884201D9032072E727488068382154
:101B500008406168C9008842EFD121480068400709
:101B6000400FA84218D91E480068C008C00028438A
:101B70001B490860FEF7E8FF064607E0FEF7E4FFB2
:101B8000801B1849884201D9032051E71448006896
:101B90004007400FA842F1D10421206808400428E2
:101BA00008D111488068072109038843E168084388
:101BB0000D49886000F03AF80B4989680F2212023B
:101BC0001140090A8900094A515CC906C90EC8407A
:101BD0000749086007480068FFF796FA28E7000001
:101BE0000020024088130000001002400036000868
:101BF0001800002010000020014800687047000015
:101C00001800002000B5FFF7F7FF06498968072292
:101C100012031140090B8900034A515CC906C90E21
:101C2000C84000BD0010024040360008FEB53548EF
:101C300080683821084000280DD132480068090228
:101C40000840C10A0120884000902F480099FEF703
:101C50005CFB044654E02B48806838210840082883
:101C600001D12A4C4CE027488068382108401028D0
:101C700034D12448C0688607B60F2248C068702156
:101C800008400009401C0190022E0FD0032E0CD1F9
:101C90001E480199FEF739FB1A49C9687F221202D2
:101CA0001140090A484305460DE000BF1648019956
:101CB000FEF72BFB1349C9687F2212021140090A63
:101CC0004843054600BF00BF0E48C068400F471C90
:101CD00039462846FEF719FB044611E0094880689A
:101CE00038210840202801D1840209E00548806895
:101CF00038210840182802D17D24240200E0002465
:101D00002046FEBD001002400024F40000127A00BC
:101D1000FEB50446002C01D10120FEBD2078C0078D
:101D2000C00F00286FD0F748876838210F40C0687F
:101D30008607B60F102F01D1032E01D0082F0BD12B
:101D4000F048006801214904084000285BD0606821
:101D5000002858D10120E0E700BF01210904606894
:101D6000884205D1E74800680843E649086021E059
:101D700005210904606888420ED1E248006801210B
:101D800089040843DF490860084600680121090406
:101D90000843DC4908600DE0DA48006801210904C5
:101DA0008843D849086008460068012189048843AF
:101DB000D449086000BF6068002812D0FEF7C4FE56
:101DC000054606E0FEF7C0FE401B642801D903204B
:101DD000A3E7CC4800680121490408400028F1D05D
:101DE00011E0FEF7B1FE054606E0FEF7ADFE401B32
:101DF000642801D9032090E7C24800680121490402
:101E000008400028F1D1022120680840022873D13F
:101E1000BC488068382108400746BA48C068860731
:101E2000B60F102F01D1022E01D0002F36D1B548A8
:101E30000068012189020840002804D0E0680028D9
:101E400001D1012069E7AF4840687F21090288433A
:101E5000616909020843AB494860002F16D1084662
:101E600000680721C902884321690843A549086021
:101E7000084600680722D2021040C20A01209040A2
:101E80000146A148FEF741FAA0490860A048006851
:101E9000FFF73AF9002849D001203EE7E068002822
:101EA0002BD0984800680721C9028843216908435C
:101EB00094490860084600688915084391490860FC
:101EC000FEF742FE054606E0FEF73EFE401B0228F6
:101ED00001D9032021E78B480068012189020840CD
:101EE0000028F1D0874840687F2109028843616952
:101EF000090208438349486018E082480068FF21CE
:101F0000013188437F490860FEF71EFE054606E062
:101F1000FEF71AFE401B022801D90320FDE679488E
:101F200000680121890208400028F1D108212068B9
:101F30000840082849D1734880683821084018288B
:101F40000BD170484030006A0221084000283CD084
:101F5000A069002839D10120DFE6A06900281AD045
:101F600068484030006A01210843664940310862F0
:101F7000FEF7EAFD054606E0FEF7E6FD401B0228F7
:101F800001D90320C9E65F484030006A02210840B9
:101F90000028F1D019E05B484030006A400840005A
:101FA000584940310862FEF7CFFD054606E0FEF7CE
:101FB000CBFD401B022801D90320AEE6514840303A
:101FC000006A022108400028F1D10421206808405D
:101FD00004287CD1002001904A48806838210840BC
:101FE00020280BD147484030C06902210840002812
:101FF0006ED0A06800286BD101208EE64148C06BEE
:10200000010F01208843002810D000BF3D48C06B5D
:102010000121090708433B49C8630846C06B09040E
:102020000840009000BF00BF0120019039480068BF
:10203000FF2101310840002816D1364800680843C6
:1020400034490860FEF780FD054606E0FEF77CFD9A
:10205000401B022801D903205FE62E480068FF21BB
:10206000013108400028F1D000BFA068012808D144
:1020700024484030C0690121084322494031C861E9
:1020800020E0A06805280FD11E484030C069042117
:1020900008431C494031C8610846C0690121084312
:1020A00018494031C8610DE016484030C069410808
:1020B000490014484030C161C06904218843114976
:1020C0004031C86100BFA068002816D001E040E0A0
:1020D0003EE0FEF739FD054607E0FEF735FD401B03
:1020E0000D49884201D9032017E606484030C069EF
:1020F000022108400028F0D01EE0FEF725FD05462D
:1021000014E00000001002400024F4001800002039
:10211000100000200070004088130000FEF714FD3E
:10212000401B6849884201D90320F6E56648C0692A
:10213000022108400028F1D10198012808D1624805
:102140004038C06B0121090788435F494039C863A3
:1021500000BFE06900285CD05B48403880683821C7
:10216000084010286FD0E069022853D15648403803
:102170000068012109068843534940390860FEF789
:10218000E3FC054606E0FEF7DFFC401B022801D910
:102190000320C2E54C484038006801214906084048
:1021A0000028F0D1616A206A0843A16A0902084345
:1021B000E16A0843216B0843616B08434249403997
:1021C000C968424A114008433F494039C86008463F
:1021D00000680121090608433B4940390860084668
:1021E000C0680904084338494039C860FEF7ACFCB0
:1021F000054606E0FEF7A8FC401B022801D9032093
:102200008BE5314840380068012149060840002824
:10221000F0D054E02C48403800680121090688437A
:102220002949403908600846C06880088000C860B5
:102230000846C0682649084023494039C860FEF76F
:1022400083FC054607E00FE0FEF77EFC401B0228FA
:1022500001D9032061E51C48403800680121490686
:1022600008400028F0D12AE0E069012800D154E5B7
:1022700015484038C668B107890F206A81421CD1D1
:1022800070203040616A884217D17F2000023040C0
:10229000A16A0902884210D11F2040043040E16A3F
:1022A00088420AD1072040063040216B884204D181
:1022B000710F4907606B814201D001202DE500209C
:1022C0002BE5000088130000401002408C80C111F3
:1022D000FFFFFEEE70B504462546681E0949884298
:1022E00001D901200CE0681E074948610321081F3D
:1022F00001F0B6F800200449886107200861002039
:1023000070BD0000FFFFFF0000E000E0014600BFDD
:102310008020405C012801D10220704701238020E9
:10232000435400BF2423842043500868026808688F
:102330000068400840000B68186001235B071046E6
:1023400098430246002048660868026020238420E3
:10235000435000BF00238020435400BF0020DCE72F
:102360007047704770B504460D4600BF8020005D81
:10237000012801D1022070BD01218020015500BF3C
:1023800024218420015120680668206800684008E4
:10239000400021680860206880680721490688435A
:1023A000284321688860204600F0A8FC2068066069
:1023B00020218420015100BF00218020015500BF51
:1023C0000020D8E770B504460D4600BF8020005DB0
:1023D000012801D1022070BD01218020015500BFDC
:1023E0002421842001512068066820680068400884
:1023F00040002168086020688068C000C008284349
:1024000021688860204600F079FC20680660202161
:102410008420015100BF00218020015500BF002011
:10242000D9E7704770477047FEB504462068C56914
:102430002068066820688768D34828400290029880
:10244000002813D12020284000280FD02020304021
:10245000002804D1012000073840002806D0206F52
:10246000002802D02046216F8847FEBD0298002830
:102470007ED0C6483840002803D1C54830400028E7
:10248000F6D0E807C00F00280DD0FF200130304003
:10249000002808D00120216808628C200059012101
:1024A00008438C2108510220284000280CD0F8074E
:1024B000C00F002808D00220216808628C20005933
:1024C000042108438C2108510420284000280CD006
:1024D000F807C00F002808D00420216808628C206B
:1024E0000059022108438C21085108202840002867
:1024F00010D020203040002803D1A44838400028C4
:1025000008D00820216808628C200059082108435F
:102510008C2108510120C002284000280ED0012043
:1025200080063040002809D00120C00221680862DE
:102530008C200059202108438C2108518C200059FF
:1025400000284DD02020284000280ED020203040E8
:10255000002804D1012000073840002805D0206F52
:10256000002802D02046216F88478C20005900E0C7
:1025700037E001902068806840210840402804D05E
:10258000282101980840002824D0204600F00AFDA8
:102590002068806840210840402817D12068806862
:1025A000884321688860E06F00280BD07948E16F8C
:1025B0008863E06FFEF740F8002811D0E06F816B70
:1025C00088470DE02046FFF72EFF09E02046FFF781
:1025D0002AFF05E02046FFF726FF00218C2001514D
:1025E00043E7E06E01287CD11020284000287CD0F1
:1025F00010203040002878D0102021680862206820
:10260000806840210840402840D1E06F0068406861
:1026100080B200900098002837D05C20015B0098C1
:10262000814232DD5E2100980853E06F0068006847
:102630002021084000281FD120680068C900884375
:102640002168086020688068400840002168886030
:102650002068806840218843216888602021882084
:1026600001510020E066206800681021884321683D
:102670000860E06FFDF794FF5C20025B5E20005B6A
:10268000101A81B22046FFF76BFEEEE65C20015B7C
:102690005E20005B081A80B200905E20005B00287C
:1026A00022D0009800281FD020680068FF21213127
:1026B000884321680860206880683449C94308401D
:1026C000216888602021882001510020E066206771
:1026D000206800681021884321680860204600991E
:1026E00000E002E0FFF73CFEBFE6012000052840C5
:1026F00000280CD0012080053840002807D0012098
:102700000005216808622046FFF78CFEADE68020B8
:10271000284000280FD080203040002804D101201C
:10272000C0053840002806D0606F002802D020463F
:10273000616F884799E640202840002807D0402054
:102740003040002803D0204600F04CFC8DE60120EC
:10275000C0052840002808D001208007304000280C
:1027600003D02046FFF75DFE7FE6012000062840EB
:10277000002807D0F00FC007002803D02046FFF73D
:10278000F0FD72E600BF70E60F08000001000010C7
:1027900020010004E92E000810B50446002C01D1E8
:1027A000012010BDA069002800D000E000BF8420F7
:1027B0000059002805D1002180200155204600F055
:1027C0002DF8242184200151206800684008400031
:1027D00021680860204600F027FC012800D1E0E7CE
:1027E000A06A002802D0204600F0CAFA206840689B
:1027F0000921C902884321684860206880682A212D
:1028000088432168886020680068012108432168A6
:102810000860204600F02CFBC3E7000010B594B020
:10282000044614210FA8FDF76EFD342102A8FDF720
:102830006AFD3049206888425AD102200290002067
:10284000049002A8FEF774FF002801D0FDF7A4FE53
:1028500000BF2948C06B0121490408432649C863C9
:102860000846C06B012149040840019000BF00BF29
:1028700000BF2148406B012108431F4948630846B7
:10288000406BC007C00F019000BF00BF0C200F902D
:1028900002201090002011901290012013900FA997
:1028A00005200007FEF768F8144815490860352030
:1028B00048601021124881600021C16080210161BF
:1028C000002141618161C1610162FDF78FFF002834
:1028D00001D0FDF761FE00BF0948A067846200BF18
:1028E000002211461C20FEF773FC1C20FEF75EFC44
:1028F00014B010BD004400400010024080000240AF
:10290000E401002070B504460E46154684200059A7
:1029100020285FD1002E01D0002D01D1012070BDF3
:1029200001210903A068884208D12069002805D147
:10293000F007C00F002801D00120F0E700BF802081
:10294000005D012801D10220E9E701218020015525
:1029500000BF2665542005535620055300218C20C6
:102960000151212184200151A06F002822D01A4852
:10297000A16FC8621948A16F08631948A16F486325
:102980000020A16F886323681A4628322B46216DE8
:10299000A06FFDF78BFF00280CD010218C20015177
:1029A00000BF00218020015500BF2021842001515B
:1029B0000120B4E740202168086200BF0021802088
:1029C000015500BF20688068802108432168886025
:1029D0000020A4E70220A2E75B2F0008952F000843
:1029E000012F00080349884202D10121024A1160E7
:1029F000704700005401002004000020704700BF11
:102A0000FEE770B50546AC6A206840688008800023
:102A100021684860002060846085012135200155CF
:102A2000A06B08210843A0632046FEF723F970BD80
:102A300070B50546AC6AE86900280AD1206840688C
:102A40004008400021684860002060850121352051
:102A500001552046FEF728FB70BD70B50446A56AF7
:102A60002846FEF727FB70BD10B504462068C068F5
:102A7000616A0880606A801C6062608D401E6085AB
:102A8000608D00280BD12068406860218843216850
:102A900048600121352001552046FEF705FB10BD99
:102AA00010B50446E06900882168C860E069801CB0
:102AB000E061608C401E6084608C00280BD120682F
:102AC0004068A021884321684860012135200155D4
:102AD0002046FEF7F5FA10BDF8B504460E46174637
:102AE0001D46FEF731F8009014E0681C002811D054
:102AF000FEF72AF80099401AA84201D2002D09D108
:102B000001213520015500BF00213420015500BFAF
:102B10000320F8BD206880683040B04201D1012018
:102B200000E00020B842E0D10020F2E708B500BF85
:102B30000E48806B012108430C4988630846806B6E
:102B4000C007C00F009000BF00BF0022114609203F
:102B5000FEF73EFB0920FEF729FB002211460B2061
:102B6000FEF736FB0B20FEF721FB08BD00100240EC
:102B700008B500BF0D48406B202108430B4948634E
:102B80000846406B20210840009000BF00BF00BFF6
:102B90000648406B01210843044948630846406BDE
:102BA000C007C00F009000BF00BF08BD001002406A
:102BB00010B50B480B490860032000024860002153
:102BC00008488160C16001617D218901416108215E
:102BD0008161FEF7A5F8002801D0FDF7DDFC10BDEE
:102BE00000300140BC00002010B51A481A490860A6
:102BF000E12080024860002117488160C1600161C6
:102C00000C21416100218161C161016241620020AA
:102C1000114988620846FFF7BFFD002801D0FDF783
:102C2000BBFC00210C48FFF7CDFB002801D0FDF7CD
:102C3000B3FC00210848FFF795FB002801D0FDF701
:102C4000ABFC0548FFF762FB002801D0FDF7A4FCB0
:102C500010BD0000004400405401002000BFFEE70A
:102C60007047000010B50248FEF705F810BD0000DF
:102C7000BC000020704710B5FEF724FA10BD00B567
:102C800093B0382105A8FDF73EFB0020019002908B
:102C90000390049001204002FEF7A4FA0220059060
:102CA000C00108900020099040200A9002200C905A
:102CB00002210D9100210E9108210F910104109124
:102CC000010611910107129105A8FFF721F80028CC
:102CD00001D0FDF761FC0720019002200290002046
:102CE00003900490022101A8FEF79CFE002801D069
:102CF000FDF752FC13B000BD70470000F0B585B081
:102D000004461BA103C9039102901BA103C90191B1
:102D10000090606E002805D101216A2001536820CF
:102D2000015322E0082708220492206880680721C6
:102D300049060840450E20688068460F6A46915D46
:102D400002AA935D049A53431846FDF7E8FA81B24C
:102D50006A2001536A46515D02AA525D7A431046C9
:102D6000FDF7DDFA81B26820015305B0F0BD000027
:102D70000101010307010000080402040801010128
:102D8000018DC907C90F002908D0016849680122CF
:102D900052049143C26A1143026851600222816A5F
:102DA0001140022907D101684968D2039143026B9F
:102DB0001143026851600422816A1140042907D13D
:102DC0000168496812049143426B114302685160E3
:102DD0000822816A1140082907D101684968120355
:102DE0009143826B1143026851601022816A114045
:102DF000102907D10168896812029143C26B1143FF
:102E0000026891602022816A1140202907D101685F
:102E1000896812029143026C11430268916040225A
:102E2000816A1140402915D1016849689203914394
:102E3000426C11430268516001221205416C9142BB
:102E400008D101684968032252059143826C1143FD
:102E5000026851608022816A1140802907D101688F
:102E6000496812039143C26C114302685160704774
:102E700038B5044600218C200151FDF765FE05465A
:102E8000206800680821084008280BD115482B4607
:102E9000002289040090204600F076FA002801D034
:102EA000032038BD206800680421084004280BD1A5
:102EB0000C482B46002209050090204600F064FAD9
:102EC000002801D00320ECE7202184200151882034
:102ED00001510020E06600BF00218020015500BFA5
:102EE0000020DEE7FFFFFF0170B50546AC6A002158
:102EF0005E200153562001532046FFF794FA70BD1F
:102F0000F8B50546AC6A8420065988200759206820
:102F1000806880210840802807D1212E05D100211A
:102F200056200153204600F06EF82068806840214A
:102F30000840402807D1222F05D100215E200153EF
:102F4000204600F02FF88C200059102108438C21D6
:102F500008512046FFF767FAF8BD70B50546AC6A20
:102F6000286800682021084000280FD10021562041
:102F70000153206880688021884321688860206828
:102F80000068402108432168086002E02046FFF7FE
:102F900029FD70BD70B50446A56A2846FFF72EFDD1
:102FA00070BD000001680968FF2221329143026868
:102FB0001160016889680A4A114002689160C16E17
:102FC000012905D101680968102291430268116046
:102FD000202288210A500021C16601677047000045
:102FE000FEFFFFEF10B504462068006840218843CB
:102FF000216808602021842001510020606720465C
:10300000FFF7F0FC10BD01680968C0229143026817
:103010001160016889680122D205914302689160BC
:10302000202284210A507047F0B58DB0044600205C
:103030000590C9492068884200D100E000BF21699D
:10304000A068084361690843E16908430790606E1E
:1030500007990843079020680068C049084007990D
:1030600008432168086020684068032109038843F9
:10307000E168084321684860A0690790B649206864
:10308000884203D0206A0799084307902068806827
:10309000B349084007990843216888602068C06ADE
:1030A00000090001616A08432168C86200BFAD4998
:1030B0002068884217D1AC4840698007800F0028FB
:1030C00006D0012808D0022804D0032808D105E042
:1030D000002507E0022505E0042503E0082501E0BE
:1030E000102500BF47E0A1492068884217D19E48BB
:1030F00040690C210840002806D0042808D0082880
:1031000004D00C2808D105E0002507E0022505E0E1
:10311000042503E0082501E0102500BF2BE09449B9
:103120002068884201D1002525E092492068884224
:1031300001D100251FE08849206888421AD18A48B9
:103140004069032189020840002808D00121890232
:10315000401A08D0401A04D0401A08D105E00025D2
:1031600007E0022505E0042503E0082501E010251D
:1031700000BF00E0102500BF77492068884263D176
:10318000002D06D0022D08D0042D08D0082D0DD119
:1031900009E0FEF737FD06460CE0774E0AE0FEF741
:1031A00045FD064606E00126F60303E00026012061
:1031B000059000BF00BF002E14D0606A40006F4A27
:1031C000115A3046FDF7A1F804906068410041189B
:1031D0000498814204D8606801030498814202D2B5
:1031E00001200590ADE0606A40006449085A02463B
:1031F0000023019030461946FCF7E6FFFF23013318
:103200000022099308920A910B901A46089BFCF73A
:10321000C3FF62685208002380185941039102904D
:103220006068024601900298FCF7CEFF0746032132
:1032300009028F4205D35248874202D82068C760EE
:103240007FE0012005907CE00121C903E06988420C
:1032500041D1002D06D0022D08D0042D08D0082D14
:103260000DD109E0FEF7CEFC06460CE0424E0AE026
:10327000FEF7DCFC064606E00126F60303E0002626
:103280000120059000BF00BF002E5AD0606A4000A8
:103290003A4A115A3046FDF738F84000616849084B
:1032A000401803906168FDF730F887B2102F0FD3F4
:1032B000344887420CD833480F38384006903807D6
:1032C000400F06990843069006982168C86038E0C8
:1032D0000120059035E0002D06D0022D08D0042DE8
:1032E00008D0082D0DD109E0FEF78CFC06460CE055
:1032F000214E0AE0FEF79AFC064606E00126F60398
:1033000003E000260120059000BF00BF002E18D06A
:10331000606A4000194A115A3046FCF7F6FF6168AE
:103320004908401803906168FCF7EFFF87B2102F3F
:1033300005D31448874202D82068C76001E0012005
:10334000059001216A200153682001530020206765
:10335000606705980DB0F0BD00800040F369FFCFB5
:10336000FFF4FF11003801404010024000440040CB
:1033700000480040004C00400024F400E035000804
:10338000FFFF0F00FFFF0000FFB581B004460D46B0
:1033900017460A9E4FE0701C00284CD0FDF7D4FB66
:1033A0000499401AB04201D8002E19D12068006853
:1033B000FF21A131884321680860206880684008A7
:1033C000400021688860202184200151882001511B
:1033D00000BF00218020015500BF032005B0F0BDD3
:1033E0002068006804210840002824D02068C069B3
:1033F00049020840C00A00281DD00846216808621A
:1034000020680068FF21A131884321680860206896
:103410008068400840002168886020218420015194
:10342000882001518C20015100BF002180200155CE
:1034300000BF0320D2E72068C0692840A84201D11C
:10344000012000E00020B842A5D00020C6E700001F
:1034500010B50248FEF7E8FF10BD0000540100203F
:1034600010B5002819DB1A4A03231B02D21883085F
:103470009B00D2588307DC0EFF23A3409A438B079F
:103480001B0E8407E40EA3401A43114B03242402AD
:103490001B198408A4001A5118E00E4A03071B0FD9
:1034A000083B9B089B00D2588307DC0EFF23A340F8
:1034B0009A438B071B0E8407E40EA3401A43054B67
:1034C0000407240F083CA408A4001A5110BD0000F2
:1034D00000E100E01CED00E0FDF700FEFFF7CFFB90
:1034E000FFF746FBFFF722FBFFF77EFBFFF760FBD2
:1034F000012000F01FF817E00C480068012807D1F0
:1035000000200A4908602021094800F033F80BE048
:1035100006480068022807D10020044908602021DD
:103520000348403000F026F8E6E7000000000020E5
:103530001C00002070B50546012D0BD140220A4920
:103540000A48FDF721FD0446002C0BD10120084953
:10355000087007E00548FDF7FDFA0446002C01D18C
:103560000349087060B270BD1C000020BC00002040
:103570000800002070B504460D462088002803D1BD
:10358000A088002800D1A41C002005E08100615A19
:103590004200054B9952401C1028F7D310210248D5
:1035A00000F004F870BD00009C00002070B50446D7
:1035B0000D4600BF064800680028FBD000200449E3
:1035C00008606804020C21460248FFF79BF970BDB1
:1035D0000400002054010020081C3044586C800076
:1035E000010002000400060008000A000C001000A0
:1035F0002000400080000001081C3044586C80000E
:1036000000000000000000000000000000000000BA
:1036100000000000000000000000000000000000AA
:103620000100000002000000030000000400000090
:10363000060000000700000008000000090000006C
:10364000000000000000000000000000000000007A
:103650000100000002000000030000000400000060
:1036600080360008000000201C0000000001000857
:103670009C3600081C000020840800001C01000883
:103680000000000001000000000000000000000039
:0C36900004000000010000000024F40011
:04000005080000BD32
:00000001FF
